:100000000C9434000C9449000C9449000C94490061
:100010000C9449000C9449000C9449000C9449003C
:100020000C9449000C9449000C9449000C9449002C
:100030000C9449000C9449000C9449000C9449001C
:100040000C9449000C9449000C9449000C9449000C
:100050000C9449000C9449000C9449000C944900FC
:100060000C9449000C94490011241FBECFEFD8E036
:10007000DEBFCDBF11E0A0E0B1E0E6E3F1E002C0F9
:1000800005900D92A830B107D9F70E9488000C9412
:1000900099000C940000282F662361F0613049F428
:1000A00084B141E050E001C0440F2A95EAF7842B67
:1000B00084B9089534B181E090E001C0880F2A9599
:1000C000EAF780958323F4CF23B130E0A90102C081
:1000D000559547958A95E2F7CA0181700895282FB2
:1000E000662361F0613049F485B141E050E001C020
:1000F000440F2A95EAF7842B85B9089535B181E03C
:1001000090E001C0880F2A95EAF780958323F4CF09
:10011000259A24981C9B0BC02D9A2FEF81EE94E01A
:10012000215080409040E1F700C00000F3CF2D98AF
:06013000F4CFF894FFCFAC
:080136000001000104040500B2
:00000001FF
